{
  "_format": "hh-sol-artifact-1",
  "contractName": "RandomWinnerGame",
  "sourceName": "contracts/RandomWinnerGame.sol",
  "abi": [
    {
      "inputs": [],
      "stateMutability": "nonpayable",
      "type": "constructor"
    },
    {
      "anonymous": false,
      "inputs": [
        {
          "indexed": false,
          "internalType": "uint256",
          "name": "gameId",
          "type": "uint256"
        },
        {
          "indexed": false,
          "internalType": "address",
          "name": "winner",
          "type": "address"
        },
        {
          "indexed": false,
          "internalType": "uint256",
          "name": "requestId",
          "type": "uint256"
        }
      ],
      "name": "GameEnded",
      "type": "event"
    },
    {
      "anonymous": false,
      "inputs": [
        {
          "indexed": false,
          "internalType": "uint256",
          "name": "gameId",
          "type": "uint256"
        },
        {
          "indexed": false,
          "internalType": "uint8",
          "name": "maxPlayers",
          "type": "uint8"
        },
        {
          "indexed": false,
          "internalType": "uint256",
          "name": "entryFee",
          "type": "uint256"
        }
      ],
      "name": "GameStarted",
      "type": "event"
    },
    {
      "anonymous": false,
      "inputs": [
        {
          "indexed": true,
          "internalType": "address",
          "name": "from",
          "type": "address"
        },
        {
          "indexed": true,
          "internalType": "address",
          "name": "to",
          "type": "address"
        }
      ],
      "name": "OwnershipTransferRequested",
      "type": "event"
    },
    {
      "anonymous": false,
      "inputs": [
        {
          "indexed": true,
          "internalType": "address",
          "name": "from",
          "type": "address"
        },
        {
          "indexed": true,
          "internalType": "address",
          "name": "to",
          "type": "address"
        }
      ],
      "name": "OwnershipTransferred",
      "type": "event"
    },
    {
      "anonymous": false,
      "inputs": [
        {
          "indexed": false,
          "internalType": "uint256",
          "name": "gameId",
          "type": "uint256"
        },
        {
          "indexed": false,
          "internalType": "address",
          "name": "player",
          "type": "address"
        }
      ],
      "name": "PlayerJoined",
      "type": "event"
    },
    {
      "stateMutability": "payable",
      "type": "fallback"
    },
    {
      "inputs": [],
      "name": "acceptOwnership",
      "outputs": [],
      "stateMutability": "nonpayable",
      "type": "function"
    },
    {
      "inputs": [],
      "name": "fee",
      "outputs": [
        {
          "internalType": "uint256",
          "name": "",
          "type": "uint256"
        }
      ],
      "stateMutability": "view",
      "type": "function"
    },
    {
      "inputs": [],
      "name": "gameId",
      "outputs": [
        {
          "internalType": "uint256",
          "name": "",
          "type": "uint256"
        }
      ],
      "stateMutability": "view",
      "type": "function"
    },
    {
      "inputs": [],
      "name": "gameStarted",
      "outputs": [
        {
          "internalType": "bool",
          "name": "",
          "type": "bool"
        }
      ],
      "stateMutability": "view",
      "type": "function"
    },
    {
      "inputs": [],
      "name": "joinGame",
      "outputs": [],
      "stateMutability": "payable",
      "type": "function"
    },
    {
      "inputs": [],
      "name": "keyHash",
      "outputs": [
        {
          "internalType": "bytes32",
          "name": "",
          "type": "bytes32"
        }
      ],
      "stateMutability": "view",
      "type": "function"
    },
    {
      "inputs": [],
      "name": "owner",
      "outputs": [
        {
          "internalType": "address",
          "name": "",
          "type": "address"
        }
      ],
      "stateMutability": "view",
      "type": "function"
    },
    {
      "inputs": [
        {
          "internalType": "uint256",
          "name": "",
          "type": "uint256"
        }
      ],
      "name": "players",
      "outputs": [
        {
          "internalType": "address",
          "name": "",
          "type": "address"
        }
      ],
      "stateMutability": "view",
      "type": "function"
    },
    {
      "inputs": [
        {
          "internalType": "uint256",
          "name": "_requestId",
          "type": "uint256"
        },
        {
          "internalType": "uint256[]",
          "name": "_randomWords",
          "type": "uint256[]"
        }
      ],
      "name": "rawFulfillRandomWords",
      "outputs": [],
      "stateMutability": "nonpayable",
      "type": "function"
    },
    {
      "inputs": [
        {
          "internalType": "uint8",
          "name": "_maxPlayers",
          "type": "uint8"
        },
        {
          "internalType": "uint256",
          "name": "_entryFee",
          "type": "uint256"
        }
      ],
      "name": "startGame",
      "outputs": [],
      "stateMutability": "nonpayable",
      "type": "function"
    },
    {
      "inputs": [
        {
          "internalType": "address",
          "name": "to",
          "type": "address"
        }
      ],
      "name": "transferOwnership",
      "outputs": [],
      "stateMutability": "nonpayable",
      "type": "function"
    },
    {
      "stateMutability": "payable",
      "type": "receive"
    }
  ],
  "bytecode": "0x60c0604052620186a0600860006101000a81548163ffffffff021916908363ffffffff1602179055506003600860046101000a81548161ffff021916908361ffff1602179055506002600860066101000a81548163ffffffff021916908363ffffffff16021790555073779877a7b0d9e8603169ddbd7836e478b46247896008600a6101000a81548173ffffffffffffffffffffffffffffffffffffffff021916908373ffffffffffffffffffffffffffffffffffffffff16021790555073ab18414cd93297b0d12ac29e63ca20f515b3db46600960006101000a81548173ffffffffffffffffffffffffffffffffffffffff021916908373ffffffffffffffffffffffffffffffffffffffff1602179055503480156200011f57600080fd5b50338060006008600a9054906101000a900473ffffffffffffffffffffffffffffffffffffffff16600960009054906101000a900473ffffffffffffffffffffffffffffffffffffffff168173ffffffffffffffffffffffffffffffffffffffff1660808173ffffffffffffffffffffffffffffffffffffffff16815250508073ffffffffffffffffffffffffffffffffffffffff1660a08173ffffffffffffffffffffffffffffffffffffffff16815250505050600073ffffffffffffffffffffffffffffffffffffffff168273ffffffffffffffffffffffffffffffffffffffff16141562000247576040517f08c379a00000000000000000000000000000000000000000000000000000000081526004016200023e9062000468565b60405180910390fd5b816000806101000a81548173ffffffffffffffffffffffffffffffffffffffff021916908373ffffffffffffffffffffffffffffffffffffffff160217905550600073ffffffffffffffffffffffffffffffffffffffff168173ffffffffffffffffffffffffffffffffffffffff1614620002ce57620002cd81620002d760201b60201c565b5b505050620004fc565b3373ffffffffffffffffffffffffffffffffffffffff168173ffffffffffffffffffffffffffffffffffffffff16141562000349576040517f08c379a00000000000000000000000000000000000000000000000000000000081526004016200034090620004da565b60405180910390fd5b80600160006101000a81548173ffffffffffffffffffffffffffffffffffffffff021916908373ffffffffffffffffffffffffffffffffffffffff1602179055508073ffffffffffffffffffffffffffffffffffffffff1660008054906101000a900473ffffffffffffffffffffffffffffffffffffffff1673ffffffffffffffffffffffffffffffffffffffff167fed8889f560326eb138920d842192f0eb3dd22b4f139c87a2c57538e05bae127860405160405180910390a350565b600082825260208201905092915050565b7f43616e6e6f7420736574206f776e657220746f207a65726f0000000000000000600082015250565b60006200045060188362000407565b91506200045d8262000418565b602082019050919050565b60006020820190508181036000830152620004838162000441565b9050919050565b7f43616e6e6f74207472616e7366657220746f2073656c66000000000000000000600082015250565b6000620004c260178362000407565b9150620004cf826200048a565b602082019050919050565b60006020820190508181036000830152620004f581620004b3565b9050919050565b60805160a051611b616200053e6000396000818161025b01528181610c9d01528181610cbe0152610dfc0152600081816109740152610c610152611b616000f3fe6080604052600436106100a05760003560e01c8063d4f77b1c11610064578063d4f77b1c1461016a578063d7c81b5514610174578063ddca3f431461019f578063e849c38e146101ca578063f2fde38b146101f3578063f71d96cb1461021c576100a7565b80631fe543e3146100a95780635e123ce4146100d257806361728f39146100fd57806379ba5097146101285780638da5cb5b1461013f576100a7565b366100a757005b005b3480156100b557600080fd5b506100d060048036038101906100cb9190611082565b610259565b005b3480156100de57600080fd5b506100e76102f5565b6040516100f491906110f9565b60405180910390f35b34801561010957600080fd5b50610112610308565b60405161011f919061112d565b60405180910390f35b34801561013457600080fd5b5061013d61030e565b005b34801561014b57600080fd5b506101546104a3565b6040516101619190611189565b60405180910390f35b6101726104cc565b005b34801561018057600080fd5b50610189610681565b60405161019691906111b3565b60405180910390f35b3480156101ab57600080fd5b506101b4610687565b6040516101c191906111b3565b60405180910390f35b3480156101d657600080fd5b506101f160048036038101906101ec9190611207565b61068d565b005b3480156101ff57600080fd5b5061021a60048036038101906102159190611273565b61079c565b005b34801561022857600080fd5b50610243600480360381019061023e91906112a0565b6107b0565b6040516102509190611189565b60405180910390f35b7f000000000000000000000000000000000000000000000000000000000000000073ffffffffffffffffffffffffffffffffffffffff163373ffffffffffffffffffffffffffffffffffffffff16146102e7576040517f08c379a00000000000000000000000000000000000000000000000000000000081526004016102de9061132a565b60405180910390fd5b6102f182826107ef565b5050565b600560019054906101000a900460ff1681565b60035481565b600160009054906101000a900473ffffffffffffffffffffffffffffffffffffffff1673ffffffffffffffffffffffffffffffffffffffff163373ffffffffffffffffffffffffffffffffffffffff161461039e576040517f08c379a000000000000000000000000000000000000000000000000000000000815260040161039590611396565b60405180910390fd5b60008060009054906101000a900473ffffffffffffffffffffffffffffffffffffffff169050336000806101000a81548173ffffffffffffffffffffffffffffffffffffffff021916908373ffffffffffffffffffffffffffffffffffffffff1602179055506000600160006101000a81548173ffffffffffffffffffffffffffffffffffffffff021916908373ffffffffffffffffffffffffffffffffffffffff1602179055503373ffffffffffffffffffffffffffffffffffffffff168173ffffffffffffffffffffffffffffffffffffffff167f8be0079c531659141344cd1fd0a4f28419497f9722a3daafe3b4186f6b6457e060405160405180910390a350565b60008060009054906101000a900473ffffffffffffffffffffffffffffffffffffffff16905090565b600560019054906101000a900460ff1661051b576040517f08c379a000000000000000000000000000000000000000000000000000000000815260040161051290611402565b60405180910390fd5b600654341461055f576040517f08c379a000000000000000000000000000000000000000000000000000000000815260040161055690611494565b60405180910390fd5b600560009054906101000a900460ff1660ff16600480549050106105b8576040517f08c379a00000000000000000000000000000000000000000000000000000000081526004016105af90611500565b60405180910390fd5b6004339080600181540180825580915050600190039060005260206000200160009091909190916101000a81548173ffffffffffffffffffffffffffffffffffffffff021916908373ffffffffffffffffffffffffffffffffffffffff1602179055507f87969bc7faf902221a147b95ceba76e011c5efb0339a0a8ee7a2bb82d9cfbbd66007543360405161064e929190611520565b60405180910390a1600560009054906101000a900460ff1660ff16600480549050141561067f5761067d61096d565b505b565b60075481565b60025481565b610695610aa0565b600560019054906101000a900460ff16156106e5576040517f08c379a00000000000000000000000000000000000000000000000000000000081526004016106dc90611595565b60405180910390fd5b600460006106f39190610ea1565b81600560006101000a81548160ff021916908360ff1602179055506001600560016101000a81548160ff0219169083151502179055508060068190555060016007600082825461074391906115e4565b925050819055507f10a7675bf1b19b67834ca5a59866847fd31c62cdfc8e9466039e6b8e088e15ae600754600560009054906101000a900460ff1660065460405161079093929190611649565b60405180910390a15050565b6107a4610aa0565b6107ad81610b30565b50565b600481815481106107c057600080fd5b906000526020600020016000915054906101000a900473ffffffffffffffffffffffffffffffffffffffff1681565b60006004805490508260008151811061080b5761080a611680565b5b602002602001015161081d91906116de565b905060006004828154811061083557610834611680565b5b9060005260206000200160009054906101000a900473ffffffffffffffffffffffffffffffffffffffff16905060008173ffffffffffffffffffffffffffffffffffffffff164760405161088890611740565b60006040518083038185875af1925050503d80600081146108c5576040519150601f19603f3d011682016040523d82523d6000602084013e6108ca565b606091505b505090508061090e576040517f08c379a0000000000000000000000000000000000000000000000000000000008152600401610905906117a1565b60405180910390fd5b7ff1898de79c348962fab7695532341027e5bceb0ea2a8785790fa7d7efeeee1296007548387604051610943939291906117c1565b60405180910390a16000600560016101000a81548160ff0219169083151502179055505050505050565b60006002547f000000000000000000000000000000000000000000000000000000000000000073ffffffffffffffffffffffffffffffffffffffff166370a08231306040518263ffffffff1660e01b81526004016109cb9190611189565b60206040518083038186803b1580156109e357600080fd5b505afa1580156109f7573d6000803e3d6000fd5b505050506040513d601f19601f82011682018060405250810190610a1b919061180d565b1015610a5c576040517f08c379a0000000000000000000000000000000000000000000000000000000008152600401610a5390611886565b60405180910390fd5b610a9b600860009054906101000a900463ffffffff16600860049054906101000a900461ffff16600860069054906101000a900463ffffffff16610c5d565b905090565b60008054906101000a900473ffffffffffffffffffffffffffffffffffffffff1673ffffffffffffffffffffffffffffffffffffffff163373ffffffffffffffffffffffffffffffffffffffff1614610b2e576040517f08c379a0000000000000000000000000000000000000000000000000000000008152600401610b25906118f2565b60405180910390fd5b565b3373ffffffffffffffffffffffffffffffffffffffff168173ffffffffffffffffffffffffffffffffffffffff161415610b9f576040517f08c379a0000000000000000000000000000000000000000000000000000000008152600401610b969061195e565b60405180910390fd5b80600160006101000a81548173ffffffffffffffffffffffffffffffffffffffff021916908373ffffffffffffffffffffffffffffffffffffffff1602179055508073ffffffffffffffffffffffffffffffffffffffff1660008054906101000a900473ffffffffffffffffffffffffffffffffffffffff1673ffffffffffffffffffffffffffffffffffffffff167fed8889f560326eb138920d842192f0eb3dd22b4f139c87a2c57538e05bae127860405160405180910390a350565b60007f000000000000000000000000000000000000000000000000000000000000000073ffffffffffffffffffffffffffffffffffffffff16634000aea07f00000000000000000000000000000000000000000000000000000000000000007f000000000000000000000000000000000000000000000000000000000000000073ffffffffffffffffffffffffffffffffffffffff16634306d354886040518263ffffffff1660e01b8152600401610d15919061199d565b60206040518083038186803b158015610d2d57600080fd5b505afa158015610d41573d6000803e3d6000fd5b505050506040513d601f19601f82011682018060405250810190610d65919061180d565b878787604051602001610d7a939291906119d5565b6040516020818303038152906040526040518463ffffffff1660e01b8152600401610da793929190611a94565b602060405180830381600087803b158015610dc157600080fd5b505af1158015610dd5573d6000803e3d6000fd5b505050506040513d601f19601f82011682018060405250810190610df99190611afe565b507f000000000000000000000000000000000000000000000000000000000000000073ffffffffffffffffffffffffffffffffffffffff1663fc2a88c36040518163ffffffff1660e01b815260040160206040518083038186803b158015610e6057600080fd5b505afa158015610e74573d6000803e3d6000fd5b505050506040513d601f19601f82011682018060405250810190610e98919061180d565b90509392505050565b5080546000825590600052602060002090810190610ebf9190610ec2565b50565b5b80821115610edb576000816000905550600101610ec3565b5090565b6000604051905090565b600080fd5b600080fd5b6000819050919050565b610f0681610ef3565b8114610f1157600080fd5b50565b600081359050610f2381610efd565b92915050565b600080fd5b6000601f19601f8301169050919050565b7f4e487b7100000000000000000000000000000000000000000000000000000000600052604160045260246000fd5b610f7782610f2e565b810181811067ffffffffffffffff82111715610f9657610f95610f3f565b5b80604052505050565b6000610fa9610edf565b9050610fb58282610f6e565b919050565b600067ffffffffffffffff821115610fd557610fd4610f3f565b5b602082029050602081019050919050565b600080fd5b6000610ffe610ff984610fba565b610f9f565b9050808382526020820190506020840283018581111561102157611020610fe6565b5b835b8181101561104a57806110368882610f14565b845260208401935050602081019050611023565b5050509392505050565b600082601f83011261106957611068610f29565b5b8135611079848260208601610feb565b91505092915050565b6000806040838503121561109957611098610ee9565b5b60006110a785828601610f14565b925050602083013567ffffffffffffffff8111156110c8576110c7610eee565b5b6110d485828601611054565b9150509250929050565b60008115159050919050565b6110f3816110de565b82525050565b600060208201905061110e60008301846110ea565b92915050565b6000819050919050565b61112781611114565b82525050565b6000602082019050611142600083018461111e565b92915050565b600073ffffffffffffffffffffffffffffffffffffffff82169050919050565b600061117382611148565b9050919050565b61118381611168565b82525050565b600060208201905061119e600083018461117a565b92915050565b6111ad81610ef3565b82525050565b60006020820190506111c860008301846111a4565b92915050565b600060ff82169050919050565b6111e4816111ce565b81146111ef57600080fd5b50565b600081359050611201816111db565b92915050565b6000806040838503121561121e5761121d610ee9565b5b600061122c858286016111f2565b925050602061123d85828601610f14565b9150509250929050565b61125081611168565b811461125b57600080fd5b50565b60008135905061126d81611247565b92915050565b60006020828403121561128957611288610ee9565b5b60006112978482850161125e565b91505092915050565b6000602082840312156112b6576112b5610ee9565b5b60006112c484828501610f14565b91505092915050565b600082825260208201905092915050565b7f6f6e6c792056524620563220777261707065722063616e2066756c66696c6c00600082015250565b6000611314601f836112cd565b915061131f826112de565b602082019050919050565b6000602082019050818103600083015261134381611307565b9050919050565b7f4d7573742062652070726f706f736564206f776e657200000000000000000000600082015250565b60006113806016836112cd565b915061138b8261134a565b602082019050919050565b600060208201905081810360008301526113af81611373565b9050919050565b7f47616d6520686173206e6f74206265656e207374617274656420796574000000600082015250565b60006113ec601d836112cd565b91506113f7826113b6565b602082019050919050565b6000602082019050818103600083015261141b816113df565b9050919050565b7f56616c75652073656e74206973206e6f7420657175616c20746f20656e74727960008201527f4665650000000000000000000000000000000000000000000000000000000000602082015250565b600061147e6023836112cd565b915061148982611422565b604082019050919050565b600060208201905081810360008301526114ad81611471565b9050919050565b7f47616d652069732066756c6c0000000000000000000000000000000000000000600082015250565b60006114ea600c836112cd565b91506114f5826114b4565b602082019050919050565b60006020820190508181036000830152611519816114dd565b9050919050565b600060408201905061153560008301856111a4565b611542602083018461117a565b9392505050565b7f47616d652069732063757272656e746c792072756e6e696e6700000000000000600082015250565b600061157f6019836112cd565b915061158a82611549565b602082019050919050565b600060208201905081810360008301526115ae81611572565b9050919050565b7f4e487b7100000000000000000000000000000000000000000000000000000000600052601160045260246000fd5b60006115ef82610ef3565b91506115fa83610ef3565b9250827fffffffffffffffffffffffffffffffffffffffffffffffffffffffffffffffff0382111561162f5761162e6115b5565b5b828201905092915050565b611643816111ce565b82525050565b600060608201905061165e60008301866111a4565b61166b602083018561163a565b61167860408301846111a4565b949350505050565b7f4e487b7100000000000000000000000000000000000000000000000000000000600052603260045260246000fd5b7f4e487b7100000000000000000000000000000000000000000000000000000000600052601260045260246000fd5b60006116e982610ef3565b91506116f483610ef3565b925082611704576117036116af565b5b828206905092915050565b600081905092915050565b50565b600061172a60008361170f565b91506117358261171a565b600082019050919050565b600061174b8261171d565b9150819050919050565b7f4661696c656420746f2073656e64204574686572000000000000000000000000600082015250565b600061178b6014836112cd565b915061179682611755565b602082019050919050565b600060208201905081810360008301526117ba8161177e565b9050919050565b60006060820190506117d660008301866111a4565b6117e3602083018561117a565b6117f060408301846111a4565b949350505050565b60008151905061180781610efd565b92915050565b60006020828403121561182357611822610ee9565b5b6000611831848285016117f8565b91505092915050565b7f4e6f7420656e6f756768204c494e4b0000000000000000000000000000000000600082015250565b6000611870600f836112cd565b915061187b8261183a565b602082019050919050565b6000602082019050818103600083015261189f81611863565b9050919050565b7f4f6e6c792063616c6c61626c65206279206f776e657200000000000000000000600082015250565b60006118dc6016836112cd565b91506118e7826118a6565b602082019050919050565b6000602082019050818103600083015261190b816118cf565b9050919050565b7f43616e6e6f74207472616e7366657220746f2073656c66000000000000000000600082015250565b60006119486017836112cd565b915061195382611912565b602082019050919050565b600060208201905081810360008301526119778161193b565b9050919050565b600063ffffffff82169050919050565b6119978161197e565b82525050565b60006020820190506119b2600083018461198e565b92915050565b600061ffff82169050919050565b6119cf816119b8565b82525050565b60006060820190506119ea600083018661198e565b6119f760208301856119c6565b611a04604083018461198e565b949350505050565b600081519050919050565b600082825260208201905092915050565b60005b83811015611a46578082015181840152602081019050611a2b565b83811115611a55576000848401525b50505050565b6000611a6682611a0c565b611a708185611a17565b9350611a80818560208601611a28565b611a8981610f2e565b840191505092915050565b6000606082019050611aa9600083018661117a565b611ab660208301856111a4565b8181036040830152611ac88184611a5b565b9050949350505050565b611adb816110de565b8114611ae657600080fd5b50565b600081519050611af881611ad2565b92915050565b600060208284031215611b1457611b13610ee9565b5b6000611b2284828501611ae9565b9150509291505056fea264697066735822122090daa6e751b4481578a0f667f347e03d14a2fa2f2eec3f175dfaefb63d2d4a2664736f6c63430008090033",
  "linkReferences": {},
  "deployedLinkReferences": {}
}